:020000040800F2
:10000000000400201B020008290200082B0200083F
:100010002D0200082F020008310200080000000035
:100020000000000000000000000000003302000893
:1000300035020008000000003702000839020008FD
:100040003B0200083B0200083B0200083B0200089C
:100050003B0200083B0200083B0200083B0200088C
:100060003B0200083B0200083B0200083B0200087C
:100070003B0200083B0200083B0200083B0200086C
:100080003B0200083B0200083B0200083920000840
:100090003B2000083B0200083B0200083B0200082E
:1000A0003B0200083B0200083B0200083B0200083C
:1000B0003B0200083B0200083B0200083B0200082C
:1000C0003B0200083B0200083B0200083B0200081C
:1000D0003B020008A70500083B0200083B0200089D
:1000E0003B0200083B020008432000083B020008D6
:1000F0003B0200083B0200083B0200083B020008EC
:100100003B0200083B0200083B0200083B020008DB
:100110003B0200083B0200083B0200083B020008CB
:100120003B0200083B0200083B0200083B020008BB
:1001300000F002F800F05AF80AA090E8000C82449F
:100140008344AAF10107DA4501D100F04FF8AFF27C
:10015000090EBAE80F0013F0010F18BFFB1A43F0A5
:100160000103184720700000407000000A444FF05F
:10017000000C10F8013B13F0070408BF10F8014B06
:100180001D1108BF10F8015B641E05D010F8016B4B
:10019000641E01F8016BF9D113F0080F1EBF10F8AF
:1001A000014BAD1C0C1B09D16D1E58BF01F801CBD2
:1001B000FAD505E014F8016B01F8016B6D1EF9D555
:1001C0009142D6D37047000000230024002500266A
:1001D000103A28BF78C1FBD8520728BF30C148BFAA
:1001E0000B6070471FB51FBD10B510BD02F05BF965
:1001F0001146FFF7F7FF00F058F802F079F903B461
:10020000FFF7F2FF03BC00F0BFF9000030BF72B689
:1002100062B680F30888704770470B4880470B49E7
:1002200081F308880A480047FEE7FEE7FEE7FEE79D
:10023000FEE7FEE7FEE7FEE7FEE7FEE705480649C4
:10024000044A064B7047000019020008480B0020C2
:100250003101000848030020480B0020480300201B
:100260001749896941F00401154A916138B115496E
:10027000096889B221F00201124A116014E01149A3
:10028000096889B241F002010E4A11600E490968FD
:1002900021F47F210C4A11601146096841F44C3168
:1002A00011600021094A11607047092000F010F91F
:1002B00001F0F8FD01F0D0FD00F0BCFF00BFFEE74B
:1002C00000100240405C004004080140B00121429F
:1002D000A14A0A400243A14B1A6070470146072316
:1002E00023EA010212029D4B1B1D18684FF6FF0303
:1002F00018409B4B18431043984B1B1D18607047C8
:100300002DE9F0410746884614461D462846FFF76A
:10031000E5FFC5F1040007FA00F60F20284100EAC6
:100320000800064306F00F06202C09DA8D48006805
:100330000121A14008434FF0E021C1F800010BE08A
:100340008848001D0068A4F1200101228A40104362
:100350004FF0E021C1F804018348005D40EA061037
:10036000C1B281480155BDE8F08170B504460B4625
:10037000CE1701EB9676C6F38700CE1701EB967683
:10038000B610A1EB8606B606350E784B9B6943F096
:100390000103764EB3614FEAB63353F820300F268F
:1003A000AE40B343724E46F82030334653F8203007
:1003B00004FA05F61E436E4B43F820606D4B1B6834
:1003C00001268E4033436B4E336002F0010343B18C
:1003D000684B0C331B6801268E403343654E0C3648
:1003E000336002F0020343B1624B08331E680123FD
:1003F0008B401E435F4B08331E6070BD00B500206C
:100400005A490861C8601420486100208861C861A9
:100410000846006840F001000860084640685649F8
:1004200008405249486008460068544908404F490E
:1004300008600846006820F480200860084640688C
:1004400020F4FE0048600020886000214FF000602A
:10045000FFF73EFF00BD10B540480830006840F08F
:1004600004003E49083108604048C06940F08050AF
:100470003E49C8614248406840F480704049486045
:100480000846006840F0040008600846006840F034
:1004900002000860FFF7BAFE10BD3148001D2F4969
:1004A000091D0860704701464906304A926942F0CA
:1004B00001022E4B9A612E4A083A526822F0E062FD
:1004C0002B4B083B5A601A4652680A435A607047E1
:1004D00030B504460025FFF791FF2448006840F43A
:1004E00080302249086000BF20480068400C002886
:1004F000FAD04FF480601D494860A01EC4B208467F
:10050000406840EA844048600846406840F48030D3
:1005100048601C48006840F032001A4908601348DF
:10052000006840F080701149086000BF0F48006803
:10053000400E0028FAD00D48406840F002000B49F8
:10054000486005E009484068C0F3870505F00305E9
:10055000022DF7D130BD000080FFFF1F08ED00E045
:100560000000FA0500E100E000E400E000100240B5
:1005700008000140000401400000FFF8FFFFF6FE04
:100580000070004000200240014600BF704700BFDD
:10059000584A128802F04002002AF9D0C2B2554BE4
:1005A0001B1D1A8070475349098801F0200111B3BF
:1005B0005049091D0988C8B24F49098801F4004112
:1005C000C9B94D49098801F4804161B10A2803D0B5
:1005D0000021494A118020E04749098841F400413F
:1005E000454A118019E00D2806D14349098841F494
:1005F0008041414A118010E03F490988C1F30D0153
:100600003E4A50543C490988491C3B4A11801146D6
:100610000988C72901DD0021118070472DE9F05FAD
:1006200005460E46300102F0B1F88146344905FB1B
:1006300001F002F0ABF88246494601F0C5FF0746DB
:10064000384602F083F884B2204602F09FF88346D1
:10065000394602F07BF982464FF0834102F0AAF856
:10066000814602F073F880464FF6FF7000EA0414EA
:1006700004EB080084B22348806940F0040021495B
:1006800088610846806940F4804088611E4800689F
:1006900020F47F601C4908600846006840F40B6045
:1006A00008601848C06840F480401649C860084691
:1006B000C06820F48040C8600E4808300480001DE7
:1006C000008842F20C0108430A490C3108800846B0
:1006D000008840F4807008800846008840F02000C0
:1006E00008800223252203210846FFF709FEBDE802
:1006F000F09F0000003801400400002004020020A8
:1007000040420F00001002400408014010B50446AA
:100710002CB90120F94909680882002010BDF84968
:10072000096808688047F54800680A30F6E710B5A0
:10073000F2480068C078F3494978884213DCEF48F2
:100740000068807878B9ED480068808858B9EB482F
:100750000068C078E94909688872E9490968486809
:100760008047002010BD0220FCE710B504462CB9DC
:100770000120E24909680882002010BDE0490968AB
:1007800088688047DD4800680C30F6E710B5DB4B21
:100790001B68D978D94B1B685879DB4B1B689A6961
:1007A00090470446D5480068807AE8B13CB9D34800
:1007B0000068007918B9D1480068807808B1022033
:1007C00010BD8CB9CE490968C8688047CB4800681D
:1007D0004079CA490968C872C8480068C078C749E2
:1007E000096808730020EBE70220E9E710B504462A
:1007F0002CB90220C14909680882002010BD0020E0
:10080000C2490880BD480068007800F07F00E0B968
:10081000BA490968487A00F0200129B1BB49097832
:1008200041F00201B94A117000F0400131B1B749FD
:10083000097801F0FE01B54A117005E0B349097865
:1008400041F00101B14A11703AE0AC48006800780B
:1008500000F07F00012801D1AC48CFE7A74800682D
:10086000007800F07F00022828D1A44A126851794C
:1008700001F00F0001F080027AB1A54B03EB80027A
:10088000D2F8002C02F03002102A16D19F4A1278BA
:1008900042F001029D4B1A700FE09D4B03EB80026A
:1008A000D2F8002C02F44052B2F5805F05D1974A8D
:1008B000127842F00102954B1A7001E000209DE78A
:1008C0008F49096808698047904897E72DE9F04704
:1008D0008A480068007800F07F08B8F1000F0AD15C
:1008E00086480068407A00F0DF0084490968487251
:1008F0000020BDE8F087B8F1020F7DD17F48006885
:10090000408818B97D480068007908B10220F0E7F6
:10091000DFF8F09179480068477927F080052C4688
:1009200076480068407900F0800038B1784901EBE2
:100930008400D0F8000C00F0300606E0744901EBAA
:100940008400D0F8000C00F4405699F80000A8424A
:1009500004D91EB169480068807A08B90220C8E746
:1009600007F0800080B16A4901EB8400D0F8000CE8
:1009700000F03000102843D1E0B201F035F8E0B2C9
:10098000302100F0DEFE3BE0614901EB8400D0F84D
:10099000000C00F44050B0F5805F31D1C4B95D4A1D
:1009A00092F82C10E0B201F0AAF8594A02EB840147
:1009B000D1F8001C4BF68F7201EA020080F48050DF
:1009C00080F40050524A02EB8401C1F8000C17E099
:1009D000E0B200F0F2FF4E4A02EB8401D1F8001CB5
:1009E0004BF68F7201EA020080F4805080F40050D0
:1009F000474A02EB840100E008E0C1F8000C00BFA8
:100A00003F49096848698047002072E700BF02201B
:100A10006FE72DE9F04139480068467926F08007F4
:100A20003C4636480068407900F0800038B13849CB
:100A300001EB8400D0F8000C00F0300506E03449EA
:100A400001EB8400D0F8000C00F440552D480078EC
:100A5000A04208D929480068408820B91DB127481C
:100A60000068807A10B90220BDE8F08106F08000AD
:100A700080B1274A02EB8401D1F8001C48F6BF720E
:100A800001EA020080F01000214A02EB8401C1F863
:100A9000000C10E01E4A02EB8401D1F8001C4BF65A
:100AA0008F7201EA020080F48050194A02EB84013F
:100AB000C1F8000C00BF124909688869804700200E
:100AC000D2E710B50D480068407A40F020000B498D
:100AD000096848720A490968C8698047002010BD42
:100AE00010B5024605480068438AAAB98888C01A2A
:100AF000024C24682082002010BD0000100000205D
:100B00001C000020740100201400002006000020BA
:100B1000005000407801002008681844ECE72DE9F7
:100B2000F041FE48006800F110042688A068C0B1BA
:100B3000BEB1A588B54200D93546A8B2A16888479C
:100B400007462088401B2080608828446080002061
:100B500000F0A7FF8046AAB24146384600F08CFD5F
:100B600000BF208850B14FF44050ED49088000216B
:100B7000084600F0A2FF3020EA4908802088A188BA
:100B8000884204DB0320E5490968087218E02088E0
:100B9000002804DD0520E1490968087210E020887A
:100BA00070B90620DD49096808720021DE48006836
:100BB00080B2801CDD4A42F810103020D9490880EC
:100BC000BDE8F0812DE9F047D448006800F1100538
:100BD0002E88D2480068077AD6B9042F18D1D44895
:100BE000007801280FD10021CF48006880B2801C16
:100BF000CE4A42F810103020CA49088000BF0020B9
:100C0000CB49087003E007271020C649088027E079
:100C1000AC88A64201D8042000E002200746B44276
:100C200000D93446A0B2A96888478046002000F069
:100C30002DFF8146A2B24946404600F003FDA1B215
:100C4000002000F03AFF2888001B28806888204494
:100C500068803020B34908800002B149088000BF95
:100C6000AE4909680F72BDE8F08770B50226AB483F
:100C700000684478A9480068007800F07F000028E8
:100C80004AD1092C03D1FFF752FD064665E0052C39
:100C900014D1A2480068C0787F280BDC9F48006808
:100CA000807838B99D480068808818B99B480068EA
:100CB000807A08B108256BE000264EE0032C14D1A1
:100CC00096480068C07801280DD194480068808853
:100CD00048B992480068407A00F0200018B1FFF748
:100CE000F0FE064639E0022637E0012C35D18B486C
:100CF0000068C07801280DD188480068808848B90C
:100D000086480068407A00F0200018B1FFF7DEFD49
:100D1000064622E0022620E080480068007800F0C5
:100D20007F00012805D10B2C17D1FFF72FFD0646B8
:100D300013E07A480068007800F07F0002280BD1A9
:100D4000012C03D1FFF7C2FD064606E0032C04D1B7
:100D5000FFF75FFE064600E002264EB1E0B2754A9C
:100D60001268516988470646032E01D109250FE014
:100D70000EB108250CE0062500216B48006880B202
:100D8000801C6A4A42F8101030206649088000BF73
:100D9000624909680D7270BD2DE9F84F5F4800681F
:100DA00045780027BA46062D1BD15C4800680078BC
:100DB00000F07F00002813D158490968887801287D
:100DC00003D15C490968CF690AE0022803D1594977
:100DD00009680F6A04E0032802D1564909684F6A7E
:100DE00099E0002D67D14D4800684088002862D105
:100DF0004A480068C08802285DD1484800680079E8
:100E0000002858D145480068007800F07F0030B9CC
:100E100042480068808810B9AFF22F677BE03F48F6
:100E20000068007800F07F00012811D13B49096873
:100E30004879404909688A690021904700286AD1A9
:100E400036480068807A002865D0AFF25F6762E0BC
:100E500032480068007800F07F0002285BD12F48FC
:100E60000068407900F00F062C480068407900F0D7
:100E700070092A480068407900F0800038B12E4996
:100E800001EB8600D0F8000C00F0300806E02A499B
:100E900001EB8600D0F8000C00F440582748007899
:100EA000B04238D9B9F1000F35D1B8F1000F32D0C6
:100EB000AFF2C7672FE0082D08D118480068007806
:100EC00000F07F0038BBAFF2BB7724E00A2D22D1BF
:100ED00012480068007800F07F0001281BD10F48FD
:100EE0000068807AB8B10D480068408898B90B480E
:100EF0000068007978B909480068C08801280AD1DB
:100F00000649096848790B4909688A6900219047B0
:100F100008B9AFF2A977EFB1004811E01000002046
:100F20002000002022000020505C004000600040B3
:100F30000800002014000020005000407401002030
:100F40000068A0F812A0B048006887610020B84788
:100F500000240FE0AC4A12685078AC4A126811695C
:100F600088470446032C05D10920A749096808725F
:100F7000BDE8F88FA4480068008A4FF6FF718842E8
:100F800004D10920A04909680872F1E7022C03D0B6
:100F90009D480068008A20B908209B4909680872AA
:100FA000E6E799480068007800F08000E0B39648D2
:100FB0000068C088009094480068008A00998842C0
:100FC00004D9914900980968088223E08E48006896
:100FD000008A8D490968C98888421BDA8A480068F6
:100FE000008A8A49096891F82C10884203DA0020A7
:100FF000874908700EE084480068008A83490968C0
:1010000091F82C1090FBF1F201FB120010B90120B5
:101010007F4908707D48006890F82C107A48006875
:101020008182FFF7CFFD07E0FFE7032076490968DB
:10103000087200037749088000BF99E710B5764829
:1010400090F82C10002000F05AFD6F480068007ADC
:10105000082805D140026F49088010206F49088098
:1010600069480068007A092801D1012010BD0020DC
:10107000FCE708B56A48006880B2001D694931F88C
:10108000100080B201EB400000905F480068007AD9
:1010900009282FD0009800785B49096808700098EB
:1010A000401C0090009800785749096848700098E3
:1010B000401C00900098801C0090009931F8020BB1
:1010C000009100F0BDFE5049096848800098801CDE
:1010D0000090009931F8020B009100F0B1FE4A49EE
:1010E000096888800098801C009000980088464914
:1010F0000968C880012044490968087242480068AC
:10110000C08810B9FFF7B1FD01E0FFF745FEFFF71A
:1011100095FF08BD30B50146434B1A78002011E019
:101120000306424C04EB9353D3F8003C48F68F740B
:101130002340C4B2234304063C4D05EB9454C4F849
:10114000003C401C9042EBD341F08003344C241F00
:10115000236030BD10B52C480068047A022C01D001
:10116000042C05D1FFF72EFD27480068047A1CE007
:10117000062C19D124480068407805280ED1224851
:101180000068007800F07F0040B91F490968C878FE
:10119000FFF7C0FF26490968086A80471B490968AC
:1011A00088688047082400E00824174909680C7201
:1011B000FFF744FF10BD10B513480068047A032CF4
:1011C00001D0052C05D1FFF7AAFC0F480068047A6E
:1011D0000EE0072C05D10D490968C868804708242E
:1011E00006E0022C01D0042C01D1082400E00824E0
:1011F000054909680C72FFF721FF10BD704710B553
:1012000000F06CFE10BD0000100000201400002053
:10121000080000202000002078010020220000208B
:10122000505C00400060004074010020005000400D
:101230001C00002010B50848084908600220096811
:1012400008720748074908600748084908600549C7
:1012500009680868804710BDCC02002010000020FB
:101260007801002014000020A80100201C000020AC
:1012700010B5002473E147F6FF70EA490860EA48B8
:10128000008800F00F00E94908700846007800283F
:101290007ED1E4484438006800F44050E4490880B6
:1012A000E0484438006800F03000E2490880DD4939
:1012B000443909684BF68F7201EA020080F400504D
:1012C000D84944390860096848F6BF7201EA02004B
:1012D00080F02000D34944390860D348008800F0EA
:1012E0001000002838D10846006848F60F71084001
:1012F000CC4944390860FFF72DFFCA4944390968D1
:101300004BF68F7201EA0200C949098801F4805145
:1013100009B180F48050C649098801F4005109B12F
:1013200080F40050BF4944390860096848F6BF722C
:1013300001EA0200BF49097801F0100109B180F00B
:101340001000BC49097801F0200109B180F02000AB
:10135000B4494439086010BDB2484438006884B2CA
:1013600004F08000D8B3AF484438006848F60F71E5
:101370000840AC4944390860FFF7ECFEA9494439FC
:1013800009684BF68F7201EA0200A949098800E05A
:10139000A6E001F4805109B180F48050A449098885
:1013A00001F4005109B180F400509E4944390860AD
:1013B000096848F6BF7201EA02009E49097801F007
:1013C000100109B180F010009A49097801F020015C
:1013D00009B180F02000934944390860BBE7FFE77A
:1013E00004F40060D8B38F4844380068C0F30E009E
:1013F00048F68F7108408B4944390860FFF739FE81
:101400008849443909684BF68F7201EA020088491D
:10141000098801F4805109B180F480508449098819
:1014200001F4005109B180F400507E49443908604C
:10143000096848F6BF7201EA02007E49097801F0A6
:10144000100109B180F010007A49097801F02001FB
:1014500009B180F020007349443908607BE7FFE759
:1014600004F4004000287AD06E4844380068C0F385
:101470000E0048F68F7108406A4944390860FFF74A
:101480009AFE6849443909684BF68F7201EA0200F6
:101490006749098801F4805109B180F4805064499A
:1014A000098801F4005109B180F400505D494439C4
:1014B0000860096848F6BF7201EA02005D490978D0
:1014C00001F0100109B180F010005A49097801F0CB
:1014D000200109B180F020005249443908603AE700
:1014E00052480078544901EB8000D0F8000C84B2D7
:1014F00004F40040C0B14D48007801EB8000D0F802
:10150000000CC0F30E0048F68F7108404749097877
:10151000494A02EB8101C1F8000C44490978491E8F
:10152000464A52F82100804704F08000B8B13F4895
:101530000078414901EB8000D0F8000C48F60F71AB
:1015400008403A4909783C4A02EB8101C1F8000C95
:1015500036490978491E3A4A52F8210080473148F5
:10156000006880B23049088000F4004000287FF411
:1015700082AE00BFEFE610B5002449E047F6FF70E9
:10158000284908602848008800F00F0027490870A3
:1015900008460078284901EB8000D0F8000C84B29E
:1015A00004F40040C8B12148007801EB8000D0F875
:1015B000000CC0F30E0048F68F7108401B490978F3
:1015C0001D4A02EB8101C1F8000C18490978491E37
:1015D0001A4A52F8210080471AE004F08000B8B19E
:1015E00012480078144901EB8000D0F8000C48F64E
:1015F0000F7108400D4909780F4A02EB8101C1F8CB
:10160000000C0A490978491E0D4A52F8210080470A
:101610000448006880B20449088000F400400028B3
:10162000ACD110BD445C0040F40000200C00002050
:101630002000002022000020005000401401002063
:10164000F8000020F0B5144604F1010C4FEA6C07D5
:10165000DFF848C00CEB41033D460AE00678401C29
:1016600090F800C046EA0C2223F8022B9B1C401C79
:101670006D1E002DF2D1F0BDF0B5561C7510074E51
:1016800006EB41042B4605E034F8047B20F8017B8F
:10169000401C5B1E002BF7D1F0BD00000060004035
:1016A000F74908607047F648006880B27047F4490F
:1016B000091D08607047F248001D006880B270473D
:1016C000EF480830006880B27047ED490C3108607F
:1016D0007047EB480C30006880B270474FF6F871E5
:1016E0000140E74A103211607047E5481030006849
:1016F00080B27047E34B03EB8002C2F8001C7047D6
:101700000146E04A02EB8100D0F8000C80B270473D
:1017100010B5DC4B03EB8002D2F8002C48F68F1397
:101720001A400A43D74C04EB8003C3F8002C10BDC9
:101730000146D44A02EB8100D0F8000C00F4C060EE
:10174000704710B5CF4C04EB8003D3F8003C48F64B
:10175000BF7403EA040201F010030BB182F010021F
:1017600001F020030BB182F02002C64C04EB800391
:10177000C3F8002C10BD10B5C24C04EB8003D3F8A5
:10178000003C4BF68F7403EA040201F480530BB162
:1017900082F4805201F400530BB182F40052B94C30
:1017A00004EB8003C3F8002C10BD30B503460C4693
:1017B0001846FFF7A5FF0546012C07D125F48050F8
:1017C000B04A02EB8301C1F8000C08E0022C06D1FC
:1017D00025F01000AB4A02EB8301C1F8000C30BDCC
:1017E0000146A84A02EB8100D0F8000C00F030005E
:1017F00070470146A34A02EB8100D0F8000C00F4C8
:10180000405070479F4B03EB8002D2F8002C48F603
:10181000BF7302EA030181F0100181F02001994BAE
:1018200003EB8002C2F8001C7047964B03EB80026A
:10183000D2F8002C4BF68F7302EA030181F4805139
:1018400081F400518F4B03EB8002C2F8001C7047FB
:101850008C4A02EB8001D1F8001C41F4807148F6FB
:101860008F721140874B03EB8002C2F8001C704757
:10187000844A02EB8001D1F8001C48F68F621140C7
:10188000804B03EB8002C2F8001C70477D4A02EBDC
:101890008001D1F8001C48F68F621140794B03EBB0
:1018A0008002C2F8001C7047764A02EB8001D1F832
:1018B000001C41F4807148F68F721140714B03EBAC
:1018C0008002C2F8001C70476E4A02EB8001D1F81A
:1018D000001C41F4807148F68F721140694B03EB94
:1018E0008002C2F8001C7047664A02EB8001D1F802
:1018F000001C48F68F621140624B03EB8002C2F875
:10190000001C704701465F4A02EB8100D0F8000CD2
:1019100000F03000102801D1012070470020FCE7C2
:101920000146584A02EB8100D0F8000C00F4405008
:10193000B0F5805F01D1012070470020FCE7514ADB
:1019400002EB8001D1F8001CC1F30E0148F68F7242
:1019500011404C4B03EB8002C2F8001C7047494A0F
:1019600002EB8001D1F8001C48F60F721140454B84
:1019700003EB8002C2F8001C7047424A02EB800170
:10198000D1F8001C48F68F72114041F480413D4B64
:1019900003EB8002C2F8001C70473A4A02EB800158
:1019A000D1F8001C48F68F72114041F04001354BD0
:1019B00003EB8002C2F8001C7047324A02EB800140
:1019C000D1F8001C01F4804169B102EB8001D1F82B
:1019D000001C48F68F72114041F48041294B03EB03
:1019E0008002C2F8001C7047264A02EB8001D1F841
:1019F000001C01F0400169B102EB8001D1F8001C2C
:101A000048F68F72114041F040011E4B03EB8002FB
:101A1000C2F8001C704710B51A4B03EB8002D2F8D5
:101A2000002C48F68F731A400A43164C04EB8003CF
:101A3000C3F8002C10BD0146124A02EB8100D0F819
:101A4000000C00F00F00704710B54A1052000C4B0C
:101A500010331B689BB203EBC0030B4C44F81320FC
:101A600010BD10B54A105300054A1032126892B2E8
:101A700002EBC002121D044C44F8123010BD0000ED
:101A8000405C004000500040006000400146EF48CC
:101A9000006880B200EBC100ED4A32F8100080B25D
:101AA00070470146E948006880B200EBC100001DA4
:101AB000E74A32F8100080B27047E44A126892B2E6
:101AC00002EBC002921CE24B43F812107047024630
:101AD0003E290BDD481101F01F030BB9431E98B2DC
:101AE0004FF4004343EA8023136007E0481001F0FD
:101AF00001030BB1431C98B283021360704710B509
:101B00000246D248006880B200EBC200801DD04C73
:101B100004EB40033E290BDD481101F01F040CB912
:101B2000441EA0B24FF4004444EA80241C6007E045
:101B3000481001F001040CB1441CA0B284021C60E6
:101B400010BD0146C148006880B200EBC100801C96
:101B5000BF4A32F81000C0F3090070470146BB4885
:101B6000006880B200EBC100801DB94A32F8100055
:101B7000C0F30900704730B54B105B00B34C2468CC
:101B8000A4B204EBC004B24D45F8143053105C000D
:101B9000AE4B1B689BB203EBC0031B1D45F8134003
:101BA00030BD10B54A105200A84B1B689BB203EB26
:101BB000C003A74C44F8132010BD10B54A105300C1
:101BC000A24A126892B202EBC002121DA04C44F865
:101BD000123010BD01469D48006880B200EBC10084
:101BE0009B4A32F8100080B270470146974800685F
:101BF00080B200EBC100001D954A32F8100080B29F
:101C0000704730B50B46012B1FD19049096889B246
:101C100001EBC001891C8E4D05EB41043E2A0BDD12
:101C2000511102F01F050DB94D1EA9B24FF4004528
:101C300045EA8125256007E0511002F001050DB14C
:101C40004D1CA9B28D0225600AE0022B08D17F4904
:101C5000096889B201EBC001891C7D4C44F8112050
:101C6000012B1FD17949096889B201EBC001891D97
:101C7000774D05EB41043E2A0BDD511102F01F05A3
:101C80000DB94D1EA9B24FF4004545EA81252560E6
:101C900007E0511002F001050DB14D1CA9B28D02F3
:101CA00025600AE0022B08D16849096889B201EB76
:101CB000C001891D664C44F8112030BD30B5034683
:101CC00001291FD16148006880B200EBC300801C6D
:101CD0005F4D05EB40043E2A0BDD501102F01F055D
:101CE0000DB9451EA8B24FF4004545EA8025256090
:101CF00007E0501002F001050DB1451CA8B28502A5
:101D000025600AE0022908D15048006880B200EB43
:101D1000C300801C4E4C44F8102030BD30B5034643
:101D200001291FD14948006880B200EBC300801D23
:101D3000474D05EB40043E2A0BDD501102F01F0514
:101D40000DB9451EA8B24FF4004545EA802525602F
:101D500007E0501002F001050DB1451CA8B2850244
:101D600025600AE0022908D13848006880B200EBFB
:101D7000C300801D364C44F8102030BD0146334866
:101D8000006880B200EBC100801C314A32F81000BC
:101D9000C0F30900704701462C48006880B200EB90
:101DA000C100801D2A4A32F81000C0F309007047B4
:101DB00001462648006880B200EBC100801D244A1D
:101DC00032F8100000F47C4008B1012070471F4831
:101DD000006880B200EBC100801C1D4A32F8100080
:101DE000C0F3090008B10220F0E70020EEE710B5CB
:101DF00001290FD1174B03EB8002D2F8002C48F6D3
:101E00008F731A4042F04002124C04EB8003C3F877
:101E1000002C10E002290ED10E4B03EB8002D2F809
:101E2000002C48F68F731A4042F48042094C04EBB0
:101E30008003C3F8002C10BD024641EA022070471F
:101E40000146CAB20B1243EA02207047505C0040C0
:101E500000600040005000406D48406820F4800061
:101E60006B4948600846C06940F40000C86170478B
:101E700003206849086070476748817A19B10521D5
:101E8000644A116002E00121624A1160704710B596
:101E90000346002000BF02E01C5C0C54401C904232
:101EA000FAD310BD10B55D48006840F480205B494E
:101EB00008605A480830006840F4802057490831CB
:101EC00008600223142200210120FEF719FA0223E0
:101ED0002A2200210846FEF713FA10BD70B500242F
:101EE00000254F4D4F480068B8B9A81E407800F053
:101EF0000100A91E48700846407880F00100487033
:101F0000AE244949474A1268881822462946FFF7F5
:101F1000BEFF44480460A41C20E0AE244148006891
:101F2000204444F2216188420AD33E4800680C1ADA
:101F30003B48801E407840F002003949891E4870B5
:101F40003949384A1268881822462946FFF79FFF08
:101F500034480068204433490860A41C33480068B2
:101F600000F0400058B1A2B290212D48801EFFF72A
:101F700069FBA2B202210120FFF7A0FE0BE0A2B292
:101F80004FF4A0712648801EFFF75CFBA2B202212D
:101F90000120FFF7C3FE2548006848F68F7108400E
:101FA00040F0400021490860096848F6BF7201EA24
:101FB000020080F0100080F020001C4908601948E1
:101FC000006844F22161884202D30020154908606C
:101FD00070BD10B5164B18681B1D19681B1D1A68BB
:101FE000A8B1144CA070030A2371030CA371030E53
:101FF0002372A1720B0A23730B0CA3730B0E2374B1
:10200000A274130A2375130CA375130E237610BD47
:1020100000100240FC010020CC020020000401401E
:1020200026000020D4000020602B0008045C004043
:10203000E8F7FF1FD8000020704710B500F00AF83D
:1020400010BD0348006840F48020014908607047D3
:102050001404014010B53748006837490880084625
:10206000008800F4806035490988084030B14FF697
:10207000FF30304908603249486880472E48008860
:1020800000F400502D490988084018B14DF6FF7042
:10209000284908602848008800F4805027490988AA
:1020A000084030B14EF6FF7022490860002000F071
:1020B0009AF92148008800F4006020490988084006
:1020C00060B12048007810B100F06DF902E0022004
:1020D00000F089F94FF2FF70164908601648008831
:1020E00000F4007015490988084040B14FF6FF50D0
:1020F0001049086014480078401C134908700E48C5
:10210000008800F480700D490988084030B14FF60E
:10211000FF6008490860072000F065F9064800885C
:1021200000F4004005490988084008B1FFF7A0F80D
:1021300010BD0000445C0040F40000201A000020A4
:102140007801002000020020F600002010B50020D9
:1021500077490968887200F003F900207549086022
:102160004FF43F4074490880084600887149091FB0
:10217000086000207149086010BD10B500206C494E
:10218000096888726E48C0796949096848720020F8
:10219000FFF7A4FA4FF400710020FFF7B9FA2021ED
:1021A0000020FFF7CEFA10210020FFF75AFC654807
:1021B00090F82C100020FFF7A2FC50210020FFF720
:1021C00043FC0020FFF762FB0020FFF72EFB4FF4DB
:1021D00080610120FFF79CFA0120FFF775FB4FF4A7
:1021E000A07290210120FFF7C6FCB022022101203D
:1021F000FFF707FD0120FFF7E0FB0120FFF7F4FBED
:10220000002202210120FFF759FD002202210120B6
:10221000FFF784FD00210120FFF7ADFA2021012006
:10222000FFF78FFA0020FFF700FB0020FEF772FF98
:1022300001204249086010BD4348817A11B105214F
:102240003E4A1160704704203C490860704770475F
:102250007047014639B936480068C088344A126868
:102260001082002070473948FCE7014639B93048F0
:102270000068C0882E4A12681082002070473448D7
:10228000FCE770B504460025812C01D0012C15D146
:10229000274800688088B0F5807F11D12448006805
:1022A0004088012802D1AFF23D0509E020480068CE
:1022B0004088022804D1AFF2650501E0022070BD1C
:1022C0001B48006885610021194800684182002090
:1022D000A8470020F3E701460220704710B50446E6
:1022E0001C492046FEF7FCFB10BD10B504461A49F8
:1022F0002046FEF7F5FB10BD70B505460C4800689A
:10230000C478042C01DD002070BD144800EBC4012A
:102310002846FEF7E5FBF7E70246012901DD02202A
:102320007047012A01DD0220FAE70020F8E70000EB
:1023300010000020445C00401A000020FC01002036
:102340005C2A000878010020CC0200203001002027
:1023500052010020CC010020D4010020DC0100202B
:10236000002101214A48016000204A4A108010469D
:102370000088474A10600020121D10604FF4E050A2
:10238000444A108010460088414A1060002070477F
:1023900001203F4908600020091D08600320091F33
:1023A00008600020704710B53948006884B244F0D6
:1023B000080437480460006884B244F004043448D8
:1023C0000460FFF755FD10BD10B53148006884B2B8
:1023D00024F004042E480460FFF74EFD4FF43F4004
:1023E0002B49086010BD70B50546072D01D02A485D
:1023F000057029480078082841D2DFE800F0040A77
:102400001016212E4142FFF7DFFF062022490870F7
:102410003BE0FFF7D9FF04201F49087035E0022098
:102420001D494870032008702FE01B484078401E6B
:10243000194948700846407808B90420087024E01B
:102440001348006884B244F0100411480460052069
:10245000114908700A20487017E00F484078401E64
:102460000D4948700846407840B90948006884B270
:1024700024F01004064804600620087005E000BF40
:1024800000BF06200449087000BF00BF70BD0000F7
:10249000405C00401A000020010200207047704795
:1024A000704770477047754600F028F8AE46050043
:1024B0006946534620F00700854618B020B5FDF761
:1024C000BDFEBDE820404FF000064FF000074FF082
:1024D00000084FF0000B21F00701AC46ACE8C00942
:1024E000ACE8C009ACE8C009ACE8C0098D4670474B
:1024F0000446AFF300802046FDF781FE0048704798
:10250000E802002090EA010F48BF81F0004100F18D
:102510002E82421A3CBF801A89184FEAD0524FF0DF
:102520007F4C1CEA410FA2EBD15318BF9CEA026F0B
:1025300000F03B804FF0004C4CEA00204CEA0121B7
:1025400021FA03FC10EB0C0C1ED202F1FF325FEA01
:102550001C2040EBC25038BF70471CF07F0F4FEA81
:10256000400C18BFBCF17F4F38BF7047C3F1200348
:10257000994008BF20F00100BCF17F4F38BF704781
:10258000A0F1C04000F0DDB94FEA3C00000A40EB8A
:10259000C25028BF1CF0FF0F4FEA400CE6D018BF16
:1025A000BCF17F4F38BF7047EAE79CEA026F05D065
:1025B00010EA5C0F08BF00F00040704710B500F053
:1025C0007AF900BF64FBBE3E4FF47F0C1CEAD012C8
:1025D0001EBF1CEAD11392EA0C0F93EA0C0F00F015
:1025E000858090EA010F48BF42F4807240F4000CED
:1025F00041F400002CF07F4120F07F4000B5814283
:10260000A2EB03020FF2081CACEB504EC0F100002D
:102610009EF800E04FEA4E0E00FB0EFC38BF49006A
:102620004FEA2C1C02F5FA020CFB0EF34FEACE1E09
:102630004FEA112C4FEAC1210EEB635E42EB2242BE
:102640000EFB0CFC4FEA1C5300FB03114FEA112C4C
:102650004FEA01310EFB0CFC4FEADC4C00FB0C1185
:10266000C14228BF09184CEB03335DF804EB10EBB3
:10267000410143EBC250B2F57C0F38BF704729D5FA
:1026800012F0F00F1CBF00F1C04000F00040704796
:10269000008182838485868788898B8C8D8E8F913B
:1026A0009293959697999A9C9D9FA0A2A3A5A7A85F
:1026B000AAACAEB0B2B3B5B7B9BCBEC0C2C5C7C98B
:1026C000CCCED1D4D7D9DCDFE2E6E9ECF0F3F7FAEF
:1026D000FE0000004FEA400C0CF1807CBCF17E4F04
:1026E00028BF7047B0F1C04000F02BB990EA010F4D
:1026F0000CEAD11348BF42F48072624538BF63458B
:1027000007D213F47F0F16D080EA010000F00040DA
:10271000704710B500F0CFF8097EFC3E00F005B818
:1027200080EA010000F00040704780EA010000F0FC
:10273000004000F006B912F47F0F04BF0248704752
:1027400080EA010000F0FDB80000C07FC10DD1F1AA
:102750009E0206DB4FEA002343F0004323FA02F017
:102760007047004207D54FEA4001B1F1FE4F02D257
:102770004FF00000704710B500F09DF8499224809A
:10278000002070476FEA200070470000B0FA80F325
:1027900010FA03F2C3F19D030AD0D90501EB122010
:1027A000530638BF704700F1010008BF20F0010058
:1027B000704700004FF47F0C1CEAD0121EBF1CEAC9
:1027C000D11392EA0C0F93EA0C0F00F0478090EAC5
:1027D000010F48BF42F480724FF0004C4CEA0020D9
:1027E0004CEA012102EB0302A0FB0113A2F5000257
:1027F000002918BF43F001035B0028BF4FEA3303F1
:1028000042EB22425FEA132C4CEBC2502EBFBCEBD2
:10281000436FB2F57C0F70474FEA036CBCF1004F79
:1028200008BF20F00100B2F57C0F38BF70470BD510
:1028300082F0FF0212F5803FC8BF704700F1C04030
:10284000D8BF00F00040704700F5000C5FEA4C0C68
:1028500048BF7047B0F1C04000F073B890EA010F74
:102860000CEAD11348BF42F48072624538BF634519
:1028700004D280EA010000F00040704710B500F07B
:102880001AF800BF8900013E00F007B800F009B84F
:102890005FEA410C5FEA1C6C08D080EA010000F09E
:1028A00050B85FEA400C5FEA1C6CF6D14FF0004074
:1028B000A0F5800070470EF1020E2EF0030E5EF8B8
:1028C000044B244204D44FEA4102B2F17F4F11D8A5
:1028D0004FEA4003B3F17F4F0CD80ED14FEAD07CC2
:1028E000B2F17F4F0CEB4C0C0CF1020C08BF4CEB1F
:1028F000D17C04E04FF0080C01E04FEAD17C0CEBF6
:102900004C0324FA03F404F00704B4F1040C06D2D7
:102910000EEB840CBDE810404CF0010C6047DFE882
:102920000CF0070802024FF00040A0F5800010BD37
:102930000846420018BFD2F1807288BF00F0004004
:1029400010BDFF2141EAD050C005704780F0004023
:1029500090EA010F7FF5DDAD81F0004100F007B88E
:1029600090EA010F48BF81F000413FF5D2AD421A15
:1029700004D882F00042A0EB020011444FEAD0528A
:102980004FF07F4C1CEA410FA2EBD15318BF9CEAD9
:10299000026F4AD04FF0004C4CEA00204CEA012173
:1029A00021FA03FCB0EB0C0C0FD412F0FE0F36D062
:1029B0005FEA4C001DD5001240EBC25038BF704793
:1029C0001CF03F0F18BF70470BE0A2F101025FEA55
:1029D0001C2040EBC25038BF70471CF07F0F18BF5F
:1029E0007047C3F12003994014BF401E20F001003E
:1029F000704780084FEA122308BF7047B0FA80FC86
:102A0000A2EB0C02CCF1280C60FA0CF093EA122F26
:102A100004BF00EBC25070474FEAC3707047130AFF
:102A20005FEADC1008BF7047F6E79CEA026F04D04B
:102A300010EA5C0F08BF0020704710B5FFF73BFF9E
:102A400040DFF63E81F00040704712010002EF02C5
:102A50000140921901010001010203010902C000B5
:102A600002010080FA080B00020E030002090400B4
:102A700000000E0100020D240110011E00808D5B7C
:102A800000010108240202010400000924030301DB
:102A90000100020009040100000E0200000E2401E2
:102AA000013F0081000300000001000B240601012A
:102AB00001010000000026240701024001F000008F
:102AC00090010000401F000020030080841E0000D1
:102AD00080841E0080841E000000000009040101A3
:102AE000010E02000007058105B000010000000092
:102AF00000000000000000000000000000000000D6
:102B000000000000000000000000000000000000C5
:102B100000000000000000000000000004030904A1
:102B20000E03570061006800610068006100320315
:102B300057004B004A002000530054004D00330062
:102B400032004600310030003300200055005600AE
:102B500043002000430061006D00650072006100C9
:102B6000FFD8FFE000104A4649460001010100601D
:102B700000600000FFE100224578696600004D4DCD
:102B8000002A0000000800010112000300000001FB
:102B90000001000000000000FFDB00430002010113
:102BA0000201010202020202020202030503030300
:102BB00003030604040305070607070706070708BB
:102BC000090B0908080A0807070A0D0A0A0B0C0C6A
:102BD0000C0C07090E0F0D0C0E0B0C0C0CFFDB0080
:102BE0004301020202030303060303060C0807085D
:102BF0000C0C0C0C0C0C0C0C0C0C0C0C0C0C0C0C15
:102C00000C0C0C0C0C0C0C0C0C0C0C0C0C0C0C0C04
:102C10000C0C0C0C0C0C0C0C0C0C0C0C0C0C0C0CF4
:102C20000C0CFFC000110800F0014003012200025B
:102C30001101031101FFC4001F0000010501010182
:102C40000101010000000000000000010203040572
:102C5000060708090A0BFFC400B5100002010303B0
:102C6000020403050504040000017D0102030004C1
:102C7000110512213141061351610722711432816D
:102C800091A1082342B1C11552D1F024336272825E
:102C9000090A161718191A25262728292A3435361D
:102CA0003738393A434445464748494A53545556BC
:102CB0005758595A636465666768696A73747576AC
:102CC0007778797A838485868788898A92939495A0
:102CD000969798999AA2A3A4A5A6A7A8A9AAB2B3C1
:102CE000B4B5B6B7B8B9BAC2C3C4C5C6C7C8C9CAED
:102CF000D2D3D4D5D6D7D8D9DAE1E2E3E4E5E6E712
:102D0000E8E9EAF1F2F3F4F5F6F7F8F9FAFFC400AE
:102D10001F01000301010101010101010100000087
:102D20000000000102030405060708090A0BFFC49E
:102D300000B51100020102040403040705040400A5
:102D400001027700010203110405213106124151ED
:102D50000761711322328108144291A1B1C1092384
:102D60003352F0156272D10A162434E125F1171896
:102D7000191A262728292A35363738393A4344453F
:102D8000464748494A535455565758595A636465FB
:102D9000666768696A737475767778797A828384EE
:102DA00085868788898A92939495969798999AA20E
:102DB000A3A4A5A6A7A8A9AAB2B3B4B5B6B7B8B933
:102DC000BAC2C3C4C5C6C7C8C9CAD2D3D4D5D6D758
:102DD000D8D9DAE2E3E4E5E6E7E8E9EAF2F3F4F584
:102DE000F6F7F8F9FAFFDA000C03010002110311FB
:102DF000003F00FDFCA28A2800A28A2800A28A289F
:102E000000A28A2800A291BAF5A40DCD003A8A6EDC
:102E10004E0D73DF14FE2BF877E087C3CD5FC59EA0
:102E20002ED734DF0E786F41B76BBD4352BF9D6123
:102E3000B7B488756666E0724003A924019240A980
:102E40009492577B0D26DD91D1D15F813F18FF0011
:102E5000E0E1FF00DA5BC7BF1B35AFDA2BE14F863D
:102E6000F569BF627F85FE23B0F0E6B768DA4D9A58
:102E70005C7889252EB2DD19A689A7898B3C60086C
:102E8000DD163F32D16450D2393FB5FF00B2D7EDE5
:102E900059E05FDB37E0868BF10FE1C788ACBC49B6
:102EA000E17D721F320B880FCD0BE06E86543F34EC
:102EB00053213868D80653D4552BFB3F68D5BCBA8C
:102EC000AEAAEBCD6A89934A7CBF8F4BF55EABA966
:102ED000E8F457E1DFEDB1FF00070FFED49F09BF13
:102EE000E0A15F173E10FC35F0FF00ECC2DA17C31B
:102EF0009D421B6B7BAF1DEBF0787EEAE2392147E8
:102F00001FBDBDD66CE29DC33302215CA8DB9032AD
:102F100009F33F19FF00C1CABFB70780FC23A8EB24
:102F200057DA07EC2F7167A5DB3DD4E9A6FC47D142
:102F3000F52BB74419222B6B7F12C934CF80711C3B
:102F400048CEC78009E2A69C94E2A6B66AFF00229A
:102F5000E516A4E3D51FD08515F9D7A07FC1607E03
:102F60003047FF000480F847FB41E91F00F54F8D13
:102F7000DE3EF1F5DFD9752F0B781A3BD856C63DEA
:102F8000F7AA6E95521BD9846BF668D4EE046E983E
:102F90007CE3853F1EFF00C1263FE0BD3FB637ED15
:102FA0004371E3CF09DC7C0DF147C52D6EFB50D694
:102FB0009742F15DC5A269FA2F83EEE1D3A49ECFBB
:102FC00046BEFB3D9410313711C51B3CF7503FFA0C
:102FD00040CB2E0674945A9CE9F585EFEAADA7E341
:102FE000E9F3262D4A11A9D256FC6FFE5EA7EEB575
:102FF00015F89FF11BFE0B0FFF000523FD93BE2369
:103000007C2F8BE3B7C04F81BE07F08FC43F18E918
:10301000FE144BEB591AFA7792E251B9505BEB531D
:1030200094611891833A6D054673D0EA7FC1C49FBD
:10303000F07096BDFB17FC56D37E0BFC24D5BC5517
:10304000E09F1F687AB586A1E27F10AE85A66A363A
:10305000B269335A990C36AB74D20698996363BE41
:1030600028F063C07C1399765CBAEEEDF95FEE4E02
:10307000E38C5B6D2E8AFF002FF87D0FD9CA2BF1F0
:1030800047FE0A55FF00073D59DCFF00C130BC2751
:10309000F113F679D53C43E12F1B78CBC5F26836A6
:1030A00047C4FA4E9EFA8476B611C535F5C9B757AE
:1030B000B8B728E66B6881383FBF72A14A823DC32A
:1030C000F658FF00839B7C0FFB6C783FC75A6FC29A
:1030D0002F855F15FC71F12FC01E0B9FC5ADA2DEC1
:1030E00069D6BA643E2236F25BC52416BF66B9BE05
:1030F0009D65769C148FCA90E063713824D6D27D8A
:10310000BF24AF75E44737C2FBFE77B59F9DCFD391
:10311000EA2BF0ABE027FC1787F6E0FDA8BC7DF1B9
:103120009BC596DF0BFE1D7C3BF873FB3BE8BAEEBC
:10313000AFE27D0F57B3B98F53B7996C2EDF4EB006
:10314000BD134AB7124CB3C2A58C10DB0611CBBC21
:10315000C7B912BD6FC1FF00F0513FF828AF8D7F96
:10316000E09E6DFB4B5AE9BFB16C7E045F0B5CF8CF
:10317000B4D84B6DE261AB9B4811DDD0462630F9E7
:10318000A446703CEDB9232C3B13F715E7A689FC48
:103190009DEDF95CD145B6A2BAB6BE6AD7FCD1FAAC
:1031A000F5457E687C5AFF0082F2789BF669FF0045
:1031B000823AFC12FDA4BC41F0D34DF1D78A3E29DE
:1031C0005E59E9973A0E8DA94BA3DB4535C4776E5E
:1031D0001A12F1DDC840FB3050872497CEEE003F35
:1031E000297ED7DFF05DFF00F82827C5EF09E976D3
:1031F0001F08FF00629F8D3F07350B7BC171A86AD6
:10320000573E11D47C4D35E42B82208D26D2E28AA4
:10321000256F983B1577208DA6320924AEA6E1D5FF
:103220003B3F2FF86BF4263AC54BBABAFC7F556387
:10323000F7728AFC97F86FFF000709FED3BE2FF1E3
:10324000CE85A3EA5FF04E1F8E9A2DA6A97D059D1F
:10325000CEA73C9AAF93629248AAD3306D1546D45C
:1032600004B10580C0FBC3AD1FF05B8FF82DEFC725
:103270008FD80BF6F1F06FC22F849A27C11BDB5F4A
:1032800013F84935F7BBF8817C34B8A29FED37714C
:10329000BAFDB26D46CED634D96EBB448DB999888D
:1032A00005890A09FBBCB7FB4DA5F257087BD7B7C8
:1032B0004577F7D8FD68A2BF9F7D7FFE0E41FDB91F
:1032C0003C37A1DE6A171A0FEC1F25BD8C0F732A3D
:1032D0005AFC4FD12EEE19114B111C31789DA4953B
:1032E000C807088ACCC700024815FAADFF0004558C
:1032F000FDBAFC5DFF00051CFF00827B7843E2CF36
:103300008E34FF000EE95E22F105CDFC3716FA255A
:10331000BCD6F628B05ECD021449A595C1291A93F2
:10332000972324E303005C69B71725D2DF89329223
:103330008B49F53EB2A2914F14B5050514514005D5
:1033400014514005145140051451400514514005D5
:1033500014514005145140051451401E23FF00052F
:1033600007F1D7C70F877FB306B7AA7ECEDE0FF06F
:10337000E78F3E2AC13DAAE99A36BB3A4363731BE5
:103380004E8272ECD736C01584BB0CCCBC81C37D99
:10339000D3F9DFFF000D8FFF000590EBFF000C9FBE
:1033A000F007D7FE42F6DFFCD0D7EBE95C9A368A0D
:1033B00098C6D763BE963F20BFE1B23FE0B20A791C
:1033C000FD93FE00FF00E0DEDBFF009A1AEA3F6A91
:1033D000BFF8238FC6DFF82C64BF0475AFDA1BE299
:1033E00035EFC37F0CE9BA29BAF1D7C35F0EBA3DF6
:1033F000AC5ACA4A551ACD9649A23BE09240D34DE9
:1034000025C345B76C60899FCBFD5431296CD0230F
:10341000E6AB4D1B5B3BFE02D75B3E963F287E250D
:10342000FC46D47F650FF82D07ECE3FB17F802DBB1
:1034300041D0FF00663F137C3BBE5D63C08743B253
:10344000BAB2D4FF00D1F592FE74D3C4F70E643043
:1034500046D2132FEF4EF326E32396EBBF63AFF86C
:1034600037FF0050FF008275FF00C1467FE1637C9B
:1034700015F8C1E24F0BFC12D792E67F10FC3D9786
:10348000370279703ECD6EAF26E496DD4C92E2496C
:10349000145C42A8116590CCF2260FED7BFB3E78C0
:1034A000F3C47FF0745FECD7E3FD37C13E2ED43C0C
:1034B00007A1F816F2D352F125AE8F712E91A6CE48
:1034C000D06B604535D2A1863726688057604F9A09
:1034D0009FDE15FA6FE37F0A5BF8EBC1DAA687740B
:1034E000D3476BAC59CB6533C24091524428C54990
:1034F0000406018E090474C834F99FB28565ACDAFC
:103500009A7E7EF4AD7FC2C554B7B67497C168FD8C
:10351000F6D5AF3B9FCF7FFC146BFE08B1FB4D7C13
:103520004EFF00829EFC6DF891A0FECABE06F8D345
:10353000E0BF19EA50CFA3DCF897C6634D8E14485C
:1035400022469238ECF5AB09C162A411386FBA0873
:1035500003393F1F7ECD5FB06FC5BFF8293FC0FF65
:103560000012EB5F053F623F82B71A6D9DECFE1FB4
:103570009B5FD37C69AD59DE6917CB147213145A63
:1035800097894C6EE8B344C0BC324649C10D8207EE
:10359000EB45C7FC196DFB2E08DD97C7DF1F99B1FE
:1035A00091FF0013BD24F3FF0082DF7AF927FE08A4
:1035B000E3FF0006B4F84FF6C8FD9E7C51E20FDA37
:1035C0000B4FF8FDF0AFC55A678A6E34CD3B4DF214
:1035D00061D0FED7A7A5BDB3C771E4DF584923E684
:1035E00049255F314843B300654E72C345463ECB23
:1035F000A462BF34BE7E9F32AA4AFEFF0077FA3F24
:10360000F2FEAE7D01FB5DFECEFF00123F621FF8B1
:1036100037F3E07AF8CFE30FC5AFD9BF5CF84B348E
:1036200096DE22B5F87E1754D4B527BCBD74860645
:103630006B7D52CE0644F316424DC30009C0DC3008
:103640007E0BFD98BE0A6A5FB347EDD7F193E06D3C
:10365000D7ED7DF11BC2FF00D83726FB4EF0FD9E53
:1036600095AAFD93E2DDDCFA7BDC5C45750DBDDBE4
:10367000416CED188D1A4B9694387EFB715FA03F1C
:10368000B6E7FC1BB72FECF5FB0AE93F027F675F4B
:10369000F8583E29F0FF00C56F89FA25E78DF55DE2
:1036A00076FAC6EA7F0FE9F18687ED2890C36ECDE2
:1036B0001A3C91C8C02485446CC76A82478F786FD2
:1036C000FE0985FF000502FD843F6D5F1C78FBC38A
:1036D0007F057E007ED49AE78905A35AF8D7C4D126
:1036E0005879967F668DEDE396086E2F6CE6B4BA36
:1036F000921D9E7F97BD09DA048F824D4AF52A54A8
:103700009CBED37F8A8BF959DED7D192AD0A30A700
:103710001FB297DD76BF2DFA9F0FFC03FD9FFF00C0
:10372000667F811FF04E4F863FB484BE3FD4BC4DB0
:10373000FB43693E37B299FE1AD978BF4CB77B88F4
:103740002DF56279B416B35DC3BEDA10448E4A8695
:10375000756C302A87EE8FDAA7F6DBF885FB20FF41
:1037600000C1C51F15BC6BE09F80FE2FF8CFE22F74
:10377000107C2AD3F4DBEF0BE812DC1BCD1E29AD45
:10378000B4D964B97682D6E18C713C6B19263504C4
:10379000C8A772F01BCCBC09FF000498FDAFBC1396
:1037A000F19B4DF1B69BFF0004E5FD9A74FD7B4F44
:1037B000D55755B79A4F18DE4D636D3893786FB172
:1037C000B78A9ADFCB56E445E514000017000AF7E4
:1037D000DFDAFBC0DFB6AFC20FF82EF7C4AF893F08
:1037E000007E07DAFC42D535CF87361A1EA1AA6BB8
:1037F0005A64D67E199A3FB3581B9FB2DD4B756D44
:103800001B4C268405885C48E177E51B696175A53A
:1038100074AFDE5F2BC2D6EF67D5FDC4D1569CBD19
:1038200016BDFDF4D7969DBAF53E40FF008269F8BB
:10383000C7C3FF00B077EC71F063F6B9BEF833A8E8
:10384000F8F3FE113F89DAB681E22F10FF006FDC3A
:10385000345E15B0B88608E331E9C73179C5A6985A
:10386000A4E3CB40E023EE796268FEB1F19C7F08CF
:103870007F6DBFF82D07ED79AA78A3C55AAD8FC229
:103880002D73F67BD3F51BDD7B4A923865FECB9218
:103890000D16FC4F0996390026311E03C64E490508
:1038A000738AEA3FE094DA8FC60FF82737FC108B53
:1038B00052BAD63F653F1C7C54F153FC499A4B9F4A
:1038C00087BA8E9177A7EA4D6CFF006778EF92D99F
:1038D000ECAE2491629E28D94887036970E0C7CE78
:1038E000E7FC12EBF659F897FF000522FDBC7F6A52
:1038F0003F8E9FB417C0BF12FC23F03FC5EF09C332
:10390000E061E18F102CF6B79731F9368926CF3A6E
:10391000286760B15B447CF114685E4C265A360A15
:10392000E4AF51C63B462F5ED78256B75D5F4F3B33
:1039300099C27CA9D495EEE4BD5DAA5EFE5A5FF4FF
:103940003F297FE08EBE08F81BAD7ED39E32D2FCAD
:1039500053E14F881E26F885756F7767F0CFC0B7A3
:103960009E23B4F0F69BE314BCB79ED65D2B50D4D7
:103970005E20D6F752DADC8314919811DD194307E3
:103980007891FEA4BCFD983E17E9FF00B5D59FC015
:1039900079BFE0947B3E2B5FE8A7C430687FF0D30B
:1039A00097677D882EBE77DA03FD9C728FF29903AC
:1039B00071F77A67EA4F80BFB2278FBC1BF12FF6F1
:1039C000F5817F64DD53E2E68FE32F1C5AD97873CB
:1039D000C39AA5F8F05DAEA7A54B0EA56D7371A7B0
:1039E0006A7708A8AA96F37965ADD83149CA8600E6
:1039F000F3F2EDEFFC10A7E284FF00B5F5A78CA170
:103A0000FF00826CFD9FE14C3A29B19FE1DFFC345D
:103A10001DA3FDA2FF0073917DFDA66EFED0BC32FA
:103A20000F242EDF93AF26946719F25BF955FEEB56
:103A3000FEB6EBAF6D4D25CCB9FD5DBEFB7F5F9B48
:103A4000D11F467FC167FC35A87C3BFF008234FE56
:103A5000CCFE11D53E10B7C08D4B4DF8B5A65869B8
:103A6000FE034F152F8A64D3208975011EDBE427DE
:103A7000CF2EAC8FC92CBE60524915F9E1FF00056D
:103A80004CB3FD8B759FF828EEB5E3FD1FE2078E62
:103A9000FE23F80FC6DAE5DDE78C34AF0F5DCFA566
:103AA000F89F4AD46E6EA59AE2E2D5750D112C9A54
:103AB000D22CEC484DC3CB23302654505ABF557CF2
:103AC0004DFF0004B4F8C1FB5BE81FB1EF87AEBE49
:103AD00009E87FB3BFC21F81FE38BAD435DF024D7B
:103AE000E3A4F15DE25AC652EEDEE45DAF12C524F6
:103AF000893DB94F30CA8D761B6B202D1F2DFF00DD
:103B000005B1FF0082657C6AF1EF8BBC43E07FD991
:103B1000C3F630FD9775CF87FE2ED16269BC676F03
:103B2000E1CD1747F156937ED2B99C457325EC043D
:103B30003FC8AC2410918948C9209A8A97E7E7EAE0
:103B4000E526BE6A3BBBBD1DAFABDFA974DFBBCBB7
:103B5000B2E55F84A5B6CEEAFF007791F9D5FF0004
:103B6000043887F655F871FF00050CF0DFC5CF115A
:103B7000FC65D53E1CD9E83AD883C1BE02BFD2F558
:103B80001F10EBB7F2CD1496CAD7DA8DAE9D0D9407
:103B9000685E4575112B1218AB18F66F7FAE3FE0CB
:103BA000B71E1AF1DFEDE1FF00059DF117C23F03DB
:103BB000FECCBF09BE39F897C05E0DB1BAB69B5EA8
:103BC000D7F58D1EF60D3488E59373C3ADD85AB87A
:103BD0005B8BDE30864C38CEE0BC7D91F0C7FE0DAD
:103BE000C1F02CBA27EC9FA8F8934FF87FE1BD6392
:103BF000E06D94177E32B0F0FF00852D3778F355D5
:103C00008A0884725C6A21629DD23B88F7912A48B7
:103C1000250581552DB8786FED2DE2CFDAF3C4BFBD
:103C2000F0539F88DACFECEFFB1969FE08F8AD2658
:103C30009B3785358F8B7E21D7EF750D2B54D2594D
:103C4000AD56D2EF4F1746D34D0F1AC7148D1AC376
:103C50007726576943B240FA56E575214D3BF2F39A
:103C60007E564EEFBBDF5D88A574A751AF892DFA54
:103C70006B76ADE4969A6ECF80FC19FF0004C2F813
:103C8000D1F11FC7DE20F0AF877F615FD9475DF1BB
:103C90004784982EB9A3E9DF18AFEEAFF462C48071
:103CA0002E604F19192124823F78AB9C1AFD7AFFB0
:103CB000008358BE3B4FF18BFE09E1AFE96DE04F49
:103CC000087C39B3F87FE36D43C3B67A2F8725D4D8
:103CD00026B5857CAB7BA90B497D777733C867B95F
:103CE0009893E715C6D0000327C0FE09FF00C10660
:103CF0007F6DAFD8460D73E277C1DFDA83C21A87D2
:103D0000C61F8897116A1E3FD175AD0B7E91AE4CD0
:103D1000B24F3BECBD9639A491CC926C526DEDD86C
:103D200089A53E6C430A7E99FF00837BFC09F12B39
:103D3000E0DFC29F89BE0EF885FB35E91FB3EDF5C4
:103D40008F89CEA574FA66BB7DA858F89AFAEA1452
:103D50006967B64BA9EEF6C690A5B233C379244D78
:103D600026F50B1B46EB55464F96507FCBAFADD695
:103D7000DDD6FF00799D6B692E9CDA7A59EFD6F774
:103D8000B1FA2719CA53A9B19CA53AB3340A28A29B
:103D9000800A28A2800A28A2800A28A2800A28A2D3
:103DA000800A28A2800A28A2800A28A42D8A005A04
:103DB0002BC963FDB93E16CBF77C4CDD33FF0020E9
:103DC000DBBF5C7FCF2A71FDB8BE1703FF00233134
:103DD000FF00C16DDFFF001AA8F6910D4F58A2BE7B
:103DE0007BF893FF000552F80BF0874F6BAF11780B
:103DF000F534D854A839D22FE5604F4F952066FD91
:103E00002B9BD33FE0B53FB356B2FB6DFE225C3136
:103E1000DA5F2FE18D5E3040F76B515A28B7B01F43
:103E200054515F3CF83FFE0AA5F01BC7F6ED3691F2
:103E3000F102D6EE35608DFF0012CBE4604F6C349A
:103E400020FE95DD69DFB5F7C3DD5A1125BF885621
:103E5000546E8458DCF3F9C7513928FC407A651553
:103E6000E772FED55E0583EFEB9B7FEDCAE3FF00B3
:103E70008DD43FF0D6DE011BB3AF63D3FD02E7FF65
:103E8000008DD4FB48F703D2A8AF351FB5CFC3F3DD
:103E9000FF0031ECFF00DB85CFFF001BA961FDAB0C
:103EA0003C0930E35DCFFDB8DCFF00F1BAAE7881AC
:103EB000E8B4579E8FDA97C0FCFF00C4EFFF0024E0
:103EC000AE3FF8DD31FF006ACF0242BBA4D7368F88
:103ED000FAF0B9FF00E3753ED237B5C0F45A2BCAE9
:103EE0006FBF6D8F869A62EE9FC482303A9FECFB63
:103EF000A3FCA2AC2D4FFE0A47F0634704DC78C850
:103F00004417AE749BE3FCA1AA8CD3D84DA4AECFCA
:103F100073A2BE73BBFF0082B27C01B05DD378F7A1
:103F2000CB03A93A1EA58FFD27A87C3BFF00057196
:103F3000FD9FBC59AB9B1D3BC7AD7574A864D8BA37
:103F400006A632A0807936E077F5AB69A5762534F0
:103F5000F63E92A2BC6A7FDBFBE135A993CCF1511E
:103F60005319C30FECABDCA9FF00BF3581E33FF869
:103F70002A7FC09F879A435F6B5E3A1656B1E374FF
:103F80008DA2EA0D9FA058093F8542927B15667D60
:103F900009457CB7A2FF00C168BF66BF1159ADC516
:103FA00097C495B885BA3AE81AA0FE76D5624FF85C
:103FB0002C6FECE708F9BE232FFE08753FFE47AAD9
:103FC000B3B5C9E78DED73E9CA2BE5B6FF0082CF23
:103FD0007ECD919F9BE24AAFFDCBFAA7FF00235411
:103FE000F63FF058EFD9CB526FDC7C45F339C1C6B0
:103FF00081AA7F5B6A2E3BA67D3B45737F09BE2D60
:10400000F87FE3978034FF0014785AFCEA9A0EA9EF
:10401000E61B5BAF22487CDD92346DF248AAE30ECA
:104020008C3903A67A104F4940C28A28A0028A28F8
:10403000A0028A28A0028A28A0028A28A0028A2830
:10404000A0028A28A0029186E14B4138149EC07ECE
:1040500057E9F61B6155CF007618CFF4CF1F8FF3C9
:104060008EFA15854B31F97BF15B76D66521CAF660
:1040700018AE0BE3178CA1F09E96F34D32C10B29BD
:1040800025DFEE8EDCD79318B94EC8A94AC8F8CF01
:10409000E286BADF197F6BA9345997ED9636F1881D
:1040A000658E4C32E0609EA0F4E3F2AFA12D7E1B42
:1040B000E8F6D6F6F0C76302BC68011B7A7D2BE5F3
:1040C000BFD94340BFF127C72D6BC4D3B3496ED7C7
:1040D0003703706E400703F0FF00115F57787AFADC
:1040E0003D424DAD2BB1EC49DB815DF8E6E2D46396
:1040F000D11D185A3CDA9CBF8A3F677813509754F9
:10410000D05BFB2EEE4EF0FCAAF9E7919C75E6B56C
:10411000FF00675FDA5AFF00C0DE23B6F0AF897C8C
:10412000E8F5017061495802B38190083E847EB879
:10413000AED56D638EDF6C72489228182CC194FD49
:104140006BC3BF6D2F86FAA6B9E0EB7D63493F676D
:10415000D53438DAE8329C799820E73F415851A8A5
:10416000AABF6720C4E1DC7547DEFA0EB70EBB6656
:10417000CCADB971DC608A92E2D103F073ED5F20BF
:10418000FEC0BFB57AFC40D06DEDEEEED24BC8D884
:10419000412A960583670D9FCC57D78D2AB30E57BA
:1041A000919C66B0AD4E54A7CACE58AE6561D05B47
:1041B000267EEAD6B595A294AC98A5E7BD6B58C803
:1041C0003CAFBC3F3AC799A2E3A226FB3203FF00F3
:1041D000D6A86FB4F578B3B7EA7D6A612A93F787FA
:1041E000E74CBCB955B73B9F6EEA2371DFA9E6FEE9
:1041F0003ED2FF00D1DB078E78AF9DBE2C2ADBF9C3
:10420000CDD957E6AFA4FC7B1FDA6D65F2DF2A4EED
:10421000339AF987F682FB5D8D9DD18D24665521F9
:10422000955371238FE75DD84D6576736215D687F8
:10423000CB9F153C7F1DA693772ACBE5ED711678B1
:104240005E49FA7A57D3FF00B1E786EDBFE15169C5
:10425000F7AD6F1FDB160E18C60B3E581049FF0056
:104260003D2BE19FDB33C3D73E17FEC5D263775B9F
:104270008D59CDDCD0364329C71DBB64E457E88790
:10428000ECBBA349A67C0CD1239179FB24792BEEBE
:10429000AA47F9F7AF5B326A34624E068B94EECED2
:1042A000AB51582D2C3F78A9B9B2C4951D71D79A3E
:1042B000F1EF8D7E0F87C59A535BBC69792CDF289F
:1042C0001201B540F6EC2BD2BC7BABFD91766D555F
:1042D0001B78DF5C46851FF6FDF4AD332C9B49C689
:1042E0000F02BC187BAF991F412C3FBBAEC7C93E24
:1042F0000DF04EA9E141A969F144B2C36B33EC283A
:1043000040007078F6EDD7B5635FF89DB0C4B30692
:10431000CF3F3138FF0039AFB835CF8636ABE09D9F
:10432000463B3B58A069D77CB2AA805540E707B608
:10433000706BE0EF89FA3A693E27B85B64315BE362
:104340000832491CF39F735F5583E5AF14CF86CCC9
:104350002A3A75B95089E23F3E6DA58FAD779F0C23
:1043600057ED5383C7DEE38E95E3760EC2F07CC72C
:10437000F3AF69F82368D3491B11D5863F2AE1CCF6
:1043800029F2EA76606A37B9FBBFFF0004ABB6F2E8
:104390007F60CF012F6517F81FF710B9FF0039EFC5
:1043A0005F445780FF00C12F63F27F617F02AFB58A
:1043B000F7FE97DCD7BF572D3F84F5028A28AD0062
:1043C00028A28A0028A28A0028A28A0028A28A009D
:1043D00028A28A0028A28A00286FBB450C78A52D48
:1043E00080FCD782D97ECA7DEBE4FF00F82855D542
:1043F000E43F0E66B1B53279FA8612351FC2C5B3F5
:104400005F5E476F9B760BC6D18CFA1AF17F8E5F89
:104410000917E286B3A646DE6491DBDC09A4541CCE
:10442000800601FD6B828C942A73054E891E33F041
:104430004FE0C2FC2CF85F6126D7FB65E5B249323C
:10444000B0C6C62A33F9919AAF3F8A67D1F56C2C72
:10445000C218F206E5F5E2BD5BE264AB6FA74969FD
:10446000B42A5BFEEB6F4E173835E03E2E6F22F517
:10447000B736E5E7FA5454AAE726CFA6CA70CA4968
:1044800023DA7C21E306BE9155DA1923C7DE703F9B
:1044900098AEBB5FF0E7FC25FE0DBE81951A531365
:1044A00008DD0060463815F30785BC632695AEDB52
:1044B0008572A9BB0CB9C86AFA83C09223E990DD62
:1044C0005BCC45BCCAAEC98E87FC8AE697BB2E641E
:1044D0007763B2FE547C3BE07B1D43F653F8ED1C42
:1044E000D12DD7F65EB5731998B236D8B0C3918F77
:1044F0005E73F4AFD2AD37E26D8DC6856F71F6A8ED
:104500005FCC890E43E73C7D6BC63E307C11D2BC4C
:104510006D6374AEAAAF3C18563FC071D47E35F2BD
:104520001F8CFE356A5F096EA4F0C9BE6B85B59518
:10453000D55F23EEE3238FC457AD469FD722BBA39D
:10454000E36BD374A67E8B5EFC6ED3B4FB931B5DD2
:104550005BAB360AE5F19158779FB60E8BA65F45A7
:104560000B5E5B9DC769C3F7FCABF3735FF8D1AA21
:104570006BC52E3CC31EC8915723AFAD50F0078AC0
:10458000DB5DF12F937F74639A450D0E48DA49EB9A
:10459000935D71CA95ACCE7F68D9FA3B7BFB6A69A3
:1045A000B6BAC88D6EADCC39DBF7FBD3B57FDAD6A2
:1045B000C2762EB751C71AAE721CB0CFE55F11CFCD
:1045C0007F3BE9B2E90AF1C70D94DFBE9063733017
:1045D000C1E0FA735C95E7C479F48B26B5697EF186
:1045E00026363F787D4D691CBE09583999F78F856D
:1045F0003F690B5D6EF6486F6E238E293263673B11
:104600005587D48ADED274AD37C47E13F10EBB75E4
:104610003AC9F635C4273C3A82715F9D90FC5EBA78
:10462000BDD3A3B68C4E6E2CD774A1D3E55518E438
:1046300036496E33D40A97E177ED77AE7F6D2787E1
:1046400061B8510DF5D35B61D0360B0C0C923A6713
:10465000D297D46CEE8CEA36CD0B8F014DFB557E94
:10466000D897175B6E2E34ED15A458C85CAF2CC0DC
:10467000E78E838AFD083A45BF843C250DBA28B7EA
:104680008ED915157EEE0018FF000FC2B88FD927FE
:10469000E06E97E01F0BC378BFBDBFBC841BB6E4C0
:1046A0006F73C9E093F5E2BB1F8A9A9456BA4DD452
:1046B000B330DB1C7C2E7BFF009FE55E3E3F12EAA1
:1046C0004D47B1ED65F876ACCF11F899E386D5B5D5
:1046D000331C2CDB47CB92D5A1F0D2CE15B4765C3F
:1046E000348C7240381F9579EF8A3516D435B5541D
:1046F0004DA0E09DBDBA0AF45F875645258E38E38C
:104700006F980CB6DAE752B23E8B114796923D870E
:10471000C1DA2DBEB07ECB32F991B5B3EF4C641C3B
:10472000293CD7E71FED2F27DAFE2A6A9B634863EF
:1047300089846891C61554003FCFE35FA89E01D0DD
:10474000160D26F2E9A45B7F2ED1F121C0038C5710
:10475000E637ED01641FE206A722CCB36E937165C4
:10476000EFC0AFA0C965EE347E6B9CC57B64D1E61B
:104770005A669FBAE8715EF1F02349C085BF85583B
:10478000741ED5E43A0D8EFBA1C57D05F0234C5572
:104790008231EAC3B7B55668D72865BA9FB65FF0CD
:1047A0004D387C8FD8A3C14BE9F6DFFD2EB8AF762C
:1047B000AF11FF0082742795FB1BF8387FD7E63FC7
:1047C000F036E2BDBAB869BF751EC30A28A2B400AC
:1047D000A28A2800A28A2800A28A2800A28A280089
:1047E000A28A2800A28A2800A0F4A283D293D80F1C
:1047F000CE98D76DB1DBFC5CE6AA786BC36EFE2762
:1048000092FD76B47E4B44C33D338FE58156D9C4C7
:1048100056DF37A62AC780FC556BA0EAC6DF516D6C
:1048200096F7C36091BF85B1C578C9EAD152DEE77A
:10483000CF9F1E6D65B7D42F36A2920E0A9F4E7978
:10484000AF9FB598635D4A5F357EEF41E99AFAA361
:10485000F692D2E4B1D4E6DD0B61B01640383C9A52
:10486000F987E311FB05EF9D1F5653BC0EDE959EA5
:10487000E7DB6436BA390F11E99F656F3616EFB87A
:104880001EE2BD7BE08F8E6E0783A3DCC775B3EDA0
:10489000E4E4119AF08BBD4A6D550C6ACC57193877
:1048A000ED5EA9F0AF50B3D27E17DD5C5CDC470251
:1048B000DACAFBDA46DBB41E99A950949D8FABCEC1
:1048C000A842387F686F7ED23FB445BF82BC30D3E8
:1048D00042C7CCC1F90360F4EB5F9DFE36F1D4DF33
:1048E000133C7575A8DD0F2E1697CDEBF31278C02B
:1048F0003E9FE15D47ED71F162E3C6FE3B686C2FC0
:104900008CD636B1A8730B864E833D0D7926B97CC3
:10491000B650C7F63919A3CEE2A47535F6195E155F
:1049200042099F91E3EA734D9D16AFF133ED056D9A
:10493000E3DC9F673B010DE95078AFC6AEA21921B9
:1049400095BCC8FAE1882DE9DEB93D374896EC49B7
:1049500039CFEF0EFE7B52C50B5C6E79318400635C
:104960003CF5AF61538B6798E4D1E91E1DF8D7A8D9
:104970004BA7CD991995E22598B7CC08C7CC7F01F4
:10498000581ABFC479B57F2AF99DB2990C413F29C5
:104990000D81FC8D50F850ABA8EB72E9D242B2A960
:1049A00012100FDE3C703F335A5F11FE1BDC7C3C63
:1049B000F0E69B15F42CB71756FE7C88FF002ED628
:1049C00024F1F8019FF810A1C229D89E66741F0E29
:1049D0003E2FC7E1BF11C7772C71C914CAE9306EE9
:1049E0008437F867BE6B2A0D55741F1E0F115AF9D4
:1049F000724627F3D2207EE73CD79DACCC810A13C8
:104A0000CBE580E800FF00F555CD33C48C0470EF92
:104A1000658DF2646273B0738A9F65A6853D51FA15
:104A20007DFB1A7ED7F6BE3FB26B39018A68577399
:104A300000D95CED1915EBFF00157535BDD1245873
:104A4000F6ED9D836E6E8A3AE6BF24FE19FC5BBCD0
:104A5000F87FABB5E69F712471E42B8CEDEA0F5A19
:104A6000FBC3F67EF8E3A7FC5DF0ADB47757924D3B
:104A700036006DE70A31EF5F2B9865DECEA73C4F1D
:104A80007B2FC424ACCB335B0BBF133FD9CED8C133
:104A9000064703A8F6AF63F012092056B6F9B680B0
:104AA0003278C715E53F14350B3D1B5C16B62DB8A3
:104AB000ED5FF56A54027F9FF2AF5BF825A7FDBA60
:104AC000DADA19A78E3DC14B60E4F41D6BCDABA2C1
:104AD0003DEC556E6A7A1D8FC47F135D59FC23BE71
:104AE000B1B18FCC7920D8EE785E41CD7C29E31F1F
:104AF00084FAA5F5FC87C9E18F40457E9F788BC37A
:104B00005A359FC319165686399D015247DFAF1A91
:104B10006F066946690C9E4B6E3906BDCCAE2DD32F
:104B2000E647E6F9B497B6D59F0C689F07F52B19B1
:104B3000F7347F81615ED9F06BC35369F146AE985B
:104B4000E7FA57D03FF0AD349B9B4F956D99BF9DD1
:104B500066B782AD34976312C69B4FF08A31F42753
:104B6000344E5F5E29D99FA47FF04F74F2FF00643A
:104B70001F07AFFD7E7FE96CF5ED59AF1AFD804848
:104B80001FB25784F1C8FF004CFF00D2C9EBD943D4
:104B900066B969C5A8A47B57BEA1451456801451B7
:104BA000450014514500145145001451450014515D
:104BB000450014514500141E9452372A7E949EC01D
:104BC0007E725D3E20ACFB1D06CFC65770E9B7CCA8
:104BD000515981DEADB5948F7A9AFE6C5B37D3352F
:104BE000CF5EEA3259399E21FBD8CEE15E145A4E8F
:104BF000FE639EC6A7ED49F0FEFBC35E1B686D7F9A
:104C0000D2E38C2952EDB9B1838AF88BE2FDDFDA69
:104C100001690793360ABA9E30715F787C4CF1FDCA
:104C20009FC4BF86D179971143A847084954360FCE
:104C300019AF833F689B86B7D5242A526544396CE7
:104C40008E78E95A518B94EC91F4B93E21515CD2A3
:104C500067905F78D2DFC17AB2ADD48B0C336543F5
:104C600033003DABCBFC7DF1FB5DD39F54D2F4BB55
:104C7000AF3B4DD48119C0653C60F39AE3FF0068F7
:104C80008F88B71E38F1143670810ADA390D83BB6C
:104C900070AC3F0FA4F6E117CE68D589DA46180C40
:104CA000FB7E95F4B85C024B9D959B7114B109D1C4
:104CB0005B156C95AE924856274B894725BAB1FCD7
:104CC0007F0FCAB52C3C1324B1C71CC89B58919CBC
:104CD000F2DEA2BBFF00867F0FBFE13AD4634BCB6D
:104CE000491AE15C2B7CB96EBEDFCC6715F4769B6C
:104CF000FB106A5AB58AC8B1CD1FEEC4B0FCBD4ED8
:104D00003383CFD6BAEA63A14BDD3E5FD9B67C9D33
:104D1000FF00080B5BC30FEE1A386325253FDE5EEC
:104D2000A0FE15CD6A7E166B22C1A364E39FE95FE6
:104D3000760FD8F2F0F86E7135BDCBEE5664554162
:104D4000946C1054F3E9835F29FC58F0A5CF876F6A
:104D5000A3B1BD8EE21B8590AB874DBC8CEE1F8549
:104D60004E1F1D09CB414A968739FB3AF85E67F81A
:104D7000D5A6C2616F2EEBF74EA067249C7E79DB2F
:104D80005F407FC1413E0ADCC56DA6EA51C4C563E0
:104D9000562493FC2480B8F7E80FFC07EB5B1FB1A7
:104DA000A7C18B5D6357D3FC452C326EB6941017A8
:104DB000856195756CFA92A7F023D6BD73F6DCF089
:104DC000D36A5E08B89A73BB2365AA2F1895A20709
:104DD0003FEE82173EE2B1AB8DBE21244FB16D1F75
:104DE00099C9A048D0B7CACDCE41CF63902A26F04A
:104DF000BCD2C2C235532B9E80F4E4707E95DF494D
:104E0000A6C335FCF0D9C61BCB3B091C6E208031F4
:104E1000F4EBF81AEAB40F83B707C2926A1711CC01
:104E20001AE37B428ABD81C127DBF9E6BD49626294
:104E30009223D93EA78D33AF86F49922997ED17102
:104E400031E5997E5207A527807E39F8A3E1DDD7A9
:104E5000FC4AEE9E1877961195E2BB4D5BC0ACF311
:104E600091E5DC2AC2A77965C672703AFB9AE47CA8
:104E700045E1D482516EBB8346A37367A735A42551
:104E800009EEAE35CCB63D4BC3BFB5FF00897C7B88
:104E9000AF5AC37971656A56544DCA877B90477C77
:104EA0009AFD08FD973C551C90A7DB2EA176C2B158
:104EB000238246DAFC95D0F449340D461B8DCDFB98
:104EC000B903723AF35F567C25FDA9A2D30416D626
:104ED000EAB0FCA15DF77B62BC5CCB02A5F023BA13
:104EE0008631F2B533EE8FDABBE39EA70DA41169CC
:104EF000ECDFD9F08552CABF5AF9F753FDA4B54685
:104F0000882C33C9B97AFCBCD7BACD61A1FC50FD5D
:104F10009DE3BA5BC8E4BC650D856E720135F35440
:104F2000DF0F76EB52430EE939C138AD30B6A54FED
:104F3000959E1622946B54E6B1D068BFB55EBDA7AE
:104F400037CF713614F4C13FD6B62CBF6BE9EEE50E
:104F5000F2EEDD97703CECAC09BE0B5C3DA7991CF2
:104F6000720E39E3FF00AF5C478C3E1ADD69B23345
:104F7000342EDB7DAB6FAC45AB18FD4D2D627EF161
:104F80007FC12E3C46BE2CFD853C0FA8236F5B8F56
:104F9000B7E1BD71A85C8FE95F412AF1FAD7CADF9A
:104FA000F04518A4B7FF008265FC33491595C1D5BB
:104FB0000107FEC2B795F55E706BCB97C47B14E317
:104FC00068A4145145494145145001451450014508
:104FD000145001451450014514500145145001412D
:104FE000E94507A5296C07E66EA32FEE0D73F713AD
:104FF0000192CD8C56C6A926603F8D61CD22B33675
:1050000070BC77AF062937F334393F88BA63CDE1F6
:105010003BEB8B7BA8E068E339676DA09F7AFCD9F6
:10502000FDA73E24DF699A8FD85E612302C19E27C7
:105030002735F587ED97F13F5BF0168B7CB6170DA2
:10504000F6793EF479F9483D7B57E76EBB2DC78B67
:105050003C4725E4DFB90A432AEFF3074FC2BEAB52
:105060002DC243E2673FB592959328E9B05E5E5E3C
:10507000B4C42B6DCB61BEF1FF00EBD7A47812C393
:10508000FB5D952EADD52DE402370A79C8180C3D8D
:105090000F7AE1ED74EB8BFBF1E52386539E0FCA8B
:1050A000D5E9FE1382EB4AB685BECECCC580316E03
:1050B0001B9BFE0478FC2BBF112495932A2BA9F58A
:1050C000BFEC79FB3DE9FE2BB959BED8B3496B8CD7
:1050D0004A30DC6E3804E707B0C6062BEE8F0D7C35
:1050E0002A8F45B3F2CAA6230A4058C73DBA62BE0A
:1050F00037FD8124BC86EAE23BDB3692357564914C
:10510000E40AD12E73C7391CFA0AFBDBFB416EF4AB
:10511000456DBE5346870C24DD93DB93FD3F1CD7C2
:10512000C7E3672533A699CFDBFC38B51E7155FD63
:10513000CDCB2E723EEB0383C7BF15F05FFC152B62
:10514000E079D135BD2B5B851963690F9A8B174EBA
:105150004866381D79FE55FA57E0BB617DA1F98C90
:10516000773970CE71F2B1FAD7897EDA3F0F63F1E9
:10517000EF839ADFC98DFE7276B2F071EFEFC561F1
:1051800085C47B3A86FECEE8F993F647F08C7E1E06
:10519000F83B6824F2FCC99D67C03F7B660E3D71F9
:1051A000C5733FB7EDF3D8D9E9B1C2FB3ED0C424F3
:1051B0006D9FBC57AE3F0AE9BE00BB787227D31A79
:1051C000560239882A7909D78F6E9593F187E18540
:1051D000F7C6BF895A1C046E4B17323B3AE415C917
:1051E000E3F235D71A8955E7654695958F1AFD89FB
:1051F0003F643B8F88B9BFBA56F2249420678F81F1
:1052000080CA7823FDACFD40AFB3354FD9934D83B1
:10521000C3B6BA4430AADBC10AC3248107CC1783C2
:10522000838EB5EAFF0004FE0FDA7807C176B696E2
:10523000F1471C71AFF02EDC92726BA7BFB18D06E7
:10524000D0BB5467200EB5CB88C6CE73E68BD06A30
:105250009AB6A7E70FED8DFB3BDAF8334B8DB4C858
:1052600067F29496B850BF79B8C0E3D3D2BE25D4C4
:105270007C3D2DBDDC8D2AB3348E4F3FC39F5FA58F
:105280007EB27EDCD62965F0DEF618F7A4CC323685
:105290000DCCC77F527DFB9AFCC1F195AC904B734E
:1052A0000491CCB712333631800E7A935F4794560F
:1052B00094A3AB39AB46DB1C2EBBE55AC6D1677451
:1052C00098C8CF4E9583A45D4B6BAA2ED6C29E4E36
:1052D00009AD5BCB6FB32B79892165FE37EDC552E4
:1052E000B689588DBCB7B57BF1578DD9E734EF63DC
:1052F000EC2FD9FF00E2F5D41E14B1B0590AAB70FF
:1053000046EF6AF4C8B5096D2EC4DB43063D96BE70
:105310005BFD9FF5B8EC357B30D1BB3230E5CE007C
:10532000AFAC2FF568AEE0B568C215DB920578B872
:10533000B8F2EC694E2AF63A4D37C4B79770F97156
:10534000C4ACB8073CE2B9FF001DDF493E9D279978
:105350006EB9DA7906BA2D1BC490DB5AE7C95CE353
:105360001C573FADDC1D6279777CB1918C76AF26FE
:10537000359DEC6D2A47EB97FC11C1BCCFF8272770
:10538000C3B6DBB79D4FFF004E9795F4E91935F38F
:1053900097FC1252CD6C3FE09F7E01897EE29D48D2
:1053A0008FC753BB3FD6BE8E0D935D11D7510514E9
:1053B0005154014514500145145001451450014504
:1053C000145001451450014514500141E9450DF7B1
:1053D000694B603F2E759B91E5639E476AC09EE3D3
:1053E000639DC09553CE7BD59D5B52001E474AC539
:1053F0009B51CB6386E7915E1455A45DCE5BE3AF12
:10540000C17D1FE30F87EE2D7CB0B71326D018E0C7
:105410006718EB5F9FBF183F605F157C3FD6A69A69
:10542000CECE4BAB2DC09F29892463B71CD7EA3F52
:1054300087ECAD75B8F648A3CD3C071D7E95EA1EF6
:1054400004F82763E28D2A6B7D42DA2BA6C1552C26
:10545000BD01E2BD8A38F95289CDCBEF9F8CDF09BF
:10546000FF0067DD435AF10DBDBC76F70B26EC1447
:10547000725581FCABEB7F04FECBB63E16D3AD6E0E
:10548000352B5985D28DFB8C22461E9C95CFEB5F28
:105490005E6BBFB0C68FE1FF001326B7A6D9A4325A
:1054A000C24BB28DA15B3D6BCD3F688B85F0CE9139
:1054B00073269FE5B5D5B46C7ECC91979252BD14FE
:1054C00071C67A66B3A98C9557646DB23CEBC47E05
:1054D00012F136A3A62FF65B5A68F636EA737320EC
:1054E000D8CD9EB8F95863D36807DAB17C1BFB4E60
:1054F0006B5F0CF553637DE2AD3758D3636647109D
:1055000030F3A21DC8C6D2D839EF9C01806B81F15F
:1055100056BFF10BF6A8F809AF78AAEBC65A77C3C5
:10552000BF0CE82B73159C2B02CD35EBC31066DC4A
:10553000CCDC9DCC00500609CE0E0D7E7CDD9F128A
:105540004D2DC6AD75E26D6A6BE855DDE46B82CA20
:10555000E500C82A3185ED8C0CF1EF5DD87CAA55A9
:10556000A3AB338E2927CA7F40DF05FE3CE9BE305E
:10557000F83316B16B791DC4322E565DA0107A1027
:10558000DDFDBAD727E3AF88B0F8A66FB2C4E1D586
:1055900094E73C6483D2BE0EFD813F693D42CBF669
:1055A00050BAB7BEB959268EE6411177EA4F24802A
:1055B00079F9BE538CE005AF4EFD947E354FF12B4B
:1055C000C5B7D0CB74B79242A64DC5BE5462791D03
:1055D0003FDA15E256C0CA126BB1EAE1EB2DCEDA22
:1055E0001F0149A26AB3476F1161FBC2FB4E4BBB5F
:1055F0004B9CE7EA6BD0FE1C786E386EE3BCB98535
:1056000052E218D4F23AF2703F956E7857C15FDAE1
:105610007A35BCF286698B6E760701B1F311F9E237
:10562000B27E20F8BA3F005ECC9B530881C6F7E4F7
:105630008DC4631F5C0AE0D5BE53AF4DCF72B2B8C4
:105640008ECE3545DAB95040F4EB9AE5FC57E2B816
:10565000F479A6692485760DC0B36140EC49AF2585
:10566000F879FB5669FE3697C95B98D6483F76E0D5
:1056700036E60471D3BE4F4EB9E6BE6BFDA57F6919
:105680006F1A7C42F8E579E07F0522CC2DE3325F8A
:105690004A18F970AAA824B1E30A3690003C906B2E
:1056A0006A3839CE5CA6352496A741FB55FC4CF1EF
:1056B00027C40BD6FECDD1DA4D2E190AB4ADF7A50D
:1056C00039272AB9CE38FE20335F37EB3E08B4F1D4
:1056D000C6A2CFE5C93CC012CBB1914104F18C7395
:1056E000CF15E5B27EDE3F17FC17ACDC4B269FA73B
:1056F000CF0C5217F2660FF3A671D0BEDEC7F84F7B
:105700005E9DEBE80FD987C7D27C74F19D87881B1B
:10571000435D2AD6F57FD360B5FDE431CBC0665E2C
:10572000A5339E9D339AFA0FABD5C342EF6B1C8A0B
:10573000A29BB23C03E2B7C1192C6E556184A3B1A0
:10574000C150E71ED818ABFF00097F64CD63C4F0D9
:10575000890E9F2E061BCC7180BDF3D2BF492C7FD2
:10576000653F0EFC44F11C7347631B5BC1CB3019D2
:10577000DDFE1C66B4BE2E7C37D1FE13782A6FEC9A
:10578000BB358D98019E33D87A5651CDDB5ECD075F
:10579000D5D6E7E70F8F7C2B63F0C6E1AD6D27060A
:1057A000EA1196DCD9C1EF8AE83E14788EFB577275
:1057B0005A663B78033C75AE5FE2DE8771A9F8BE9E
:1057C000FEF26F318176DAA0FCABC9FF000ADFF888
:1057D000528B6512B478F9B8E0FBD76559F353B929
:1057E0008C23699EEDE1DBF79638E33F31C73C53EC
:1057F000F5E8DBCAF97728EF593E1CD4BFB315652D
:105800007F99BAF3DAA4F11F8DA182D9BCC11E58C9
:105810001C715E528BB9ACAC7ECBFF00C1238327D9
:10582000FC13DFE1FAB1DCC3FB4727FEE25755F476
:105830008E2BE65FF823C6A6357FF82747C3BB95B6
:10584000DB893FB4BA1F4D4EEC57D355D91D8E504E
:10585000A28A2A8028A28A0028A28A0028A28A0076
:1058600028A28A0028A28A0028A28A002827028A61
:10587000463F29A4F603F26AE9A3C02EACDEA07568
:10588000A862B6D3E77CC8B3A9EBC1ADEB9D088F86
:10589000CBD2B3EE34AF29B757CFCAB5A4EE11952A
:1058A000CB7E08B5D3D35686359255DCD8C1EF5F91
:1058B00052FC38F0B7D9AD1648F76D61D71D6BE4CF
:1058C000AD2E75B0D660958602B83F857DB7F0479E
:1058D00051875DF0844C8BF2EDE6BA29CB9A24C94E
:1058E000599CDFC66BA9349F07DF34656365849ECE
:1058F00047B1AF8AEDF588FC4DF11E487515565934
:10590000F7C0849F2F04EE04B7AE377AD7DD5F1956
:10591000B45FB77862EBCB62CDB48C1AFCF7F19F21
:10592000856E20F1C6A50C970ABB67696164930D6B
:1059300019EBFCC53A3A4AE37A9F25FC53F17FFC08
:1059400033FE83E38F84BE22F31ADB54B83AA68F6A
:10595000A8C5000239658763865623721F97E65EE5
:10596000411D39CD7C4FE23B5D5753D66E2CE38A07
:10597000DEC7ED0C12626F06C9318046319EF5FA22
:1059800051FB40782EE3C7F143FDBD636D7C612F71
:10599000F6791A156E463FBC73B4E4E79EDD2BE73B
:1059A000BD63E16E93158AC3A7E936E6FA4F9269A3
:1059B000DA15DDBB763E503A77C9CF4AFA6C1E3213
:1059C0003085D993A2E43BE15781DFC29FB3DDA9C3
:1059D0004B88E48D91926850E04851B1BF0402C3F6
:1059E000DFE5E06715EA1FB17F87351F06EB5BA790
:1059F000DF1B6A2D8C367EE70539EB8C367A107109
:105A0000D4D759F0ABF658D4B54D034C89D7C9F962
:105A1000630815C11213CE0F4DB9E9FC23191D2BD4
:105A2000D8343F83771E14F14D9C91421ADE353EE7
:105A3000642597681CFDD3D38C0E9F92D7978BC695
:105A40004657B1DD4236563E8EF02E981FC236EED6
:105A5000E76E108C63BF39FC7240FC2BE61FF82800
:105A60000F889A3D3F75BAB47248B80CA769071CF5
:105A700073E8304FFC0C57D47E0FB392F3466B8D16
:105A8000CC22B780EC607E52D93FD315F3B7ED4FEF
:105A9000E139BC6B3436D6F1ACDF3852C582E1B0A7
:105AA00079FA74FC87A578741F2D5E66753936AC5B
:105AB0007E79E81F17B52F8752DD32ED9572C4ED60
:105AC000218C858E4F6EDDBEA45779FF0004F9FD51
:105AD000A3F45F09FC6FF155C789A5B5DFE2B944AE
